:100000000C942A000C949C0F0C94C90F0C94F60FBE
:100010000C9447000C9447000C9447000C94A11DCD
:100020000C9447000C9447000C9447000C94470034
:100030000C9447000C9447000C9447000C94470024
:100040000C9447000C9447000C9447000C94470014
:100050000C94470011241FBECFE5D8E0DEBFCDBF12
:1000600011E0A0E6B0E0E0EDF2E502C005900D92EF
:10007000A832B107D9F716E0A8E2B1E001C01D929D
:10008000A839B107E1F70E94281A0C9466290C944C
:100090000000EF92FF920F931F937B018C0120E0F1
:1000A00030E040E05FE40E94490388238CF0C801FF
:1000B000B70120E030E040E05FE40E94C1010E940F
:1000C000A9039B01AC01205030404040504806C07D
:1000D000C801B7010E94A9039B01AC01B901CA0183
:1000E0001F910F91FF90EF900895A0E0B0E0EBE733
:1000F000F0E00C941029DC012B01FA019C91923064
:1001000008F439C1EB018881823008F433C194309E
:1001100069F4843009F02FC111969C91119789815F
:10012000981709F428C1AAE0B1E025C1843009F488
:1001300021C18230A9F4923009F01DC19A01AD01AC
:1001400088E0EA010990AE01E90109929E0181501F
:10015000C1F7E201898111969C918923818308C1AD
:10016000923009F407C112962D903C901397EB0141
:100170008A819B811496AD90BD90CD90DC901797AD
:10018000EC80FD800E811F819101281B390BB90184
:1001900037FF04C066277727621B730B6032710537
:1001A0000CF061C0121613066CF537014801062EDB
:1001B00004C096948794779467940A94D2F721E0C8
:1001C00030E040E050E004C0220F331F441F551FB1
:1001D0006A95D2F721503040404050402E213F21B7
:1001E00040235123211531054105510521F021E01E
:1001F00030E040E050E079018A01E628F72808293C
:1002000019293CC0232BD1F1260E371E350146019A
:10021000062E04C096948794779467940A94D2F734
:1002200021E030E040E050E004C0220F331F441FC3
:10023000551F6A95D2F721503040404050402A2146
:100240003B214C215D21211531054105510521F04E
:1002500021E030E040E050E059016A01A628B728CB
:10026000C828D9280BC0821593052CF01C01AA249C
:10027000BB24650103C0EE24FF24870111969C91E5
:10028000D20111968C91981709F445C0992339F041
:10029000A80197012A193B094C095D0906C0A6016E
:1002A00095012E193F09400B510B57FD08C01182D3
:1002B0003382228224833583468357831DC081E0A5
:1002C00081833382228288279927DC01821B930B4A
:1002D000A40BB50B84839583A683B7830DC0220F2F
:1002E000331F441F551F24833583468357838281E0
:1002F000938101979383828324813581468157813D
:10030000DA01C9010197A109B1098F5F9F4FAF4F72
:10031000BF4328F30BC0918333822282EA0CFB1C7B
:100320000C1D1D1DE482F5820683178383E0808304
:10033000248135814681578157FF1AC0C901AA27F8
:1003400097FDA095BA2F81709070A070B0705695EF
:10035000479537952795822B932BA42BB52B848318
:100360009583A683B7838281938101969383828349
:10037000DF0101C0D201CD01CDB7DEB7E2E10C94BF
:100380002C29A0E2B0E0E7ECF1E00C941C29698391
:100390007A838B839C832D833E834F835887E9E048
:1003A000EE2EF12CEC0EFD1ECE010196B7010E943F
:1003B000D2048E010F5E1F4FCE010596B8010E9438
:1003C000D2048A8991E089278A8BC701B801AE01DE
:1003D000475E5F4F0E9475000E94FD03A096E6E015
:1003E0000C943829A0E2B0E0E8EFF1E00C941C296D
:1003F00069837A838B839C832D833E834F835887C5
:10040000F9E0EF2EF12CEC0EFD1ECE010196B701A6
:100410000E94D2048E010F5E1F4FCE010596B801D7
:100420000E94D204C701B801AE01475E5F4F0E942F
:1004300075000E94FD03A096E6E00C943829A0E226
:10044000B0E0E5E2F2E00C94102969837A838B83B3
:100450009C832D833E834F835887CE010196BE0136
:10046000675F7F4F0E94D204CE010596BE016F5E8A
:100470007F4F0E94D2049985923088F0898982301A
:10048000C8F0943019F4823051F404C0843029F457
:10049000923081F48AE091E0C6C0923049F420E0C5
:1004A0009A858A89981321E02A87CE010996BBC0D4
:1004B000823049F420E09A858A89981321E02A8BBA
:1004C000CE014196B0C02D843E844F8458886D88FB
:1004D0007E888F88988CEE24FF248701AA24BB2471
:1004E000650140E050E060E070E0E0E0F0E0C10174
:1004F00081709070892BE9F0E60CF71C081D191D1E
:100500009A01AB012A0D3B1D4C1D5D1D80E090E062
:10051000A0E0B0E0E614F7040805190520F481E036
:1005200090E0A0E0B0E0BA01A901480F591F6A1F8E
:100530007B1FAA0CBB1CCC1CDD1C97FE08C081E0F5
:1005400090E0A0E0B0E0A82AB92ACA2ADB2A3196B6
:10055000E032F10549F0660C771C881C991C569412
:10056000479437942794C3CFFA85EA892B893C892D
:100570008B859C85280F391F2E5F3F4F17C0CA01FE
:1005800081709070892B61F016950795F794E79428
:1005900080E090E0A0E0B0E8E82AF92A0A2B1B2BC3
:1005A00076956795579547952F5F3F4F77FDE7CF36
:1005B0000CC0440F551F661F771F17FD4160EE0CDE
:1005C000FF1C001F111F21503040403090E05907A0
:1005D00090E0690790E4790760F32B8F3C8FDB0193
:1005E000CA018F779070A070B07080349105A1051A
:1005F000B10561F447FD0AC0E114F10401051105DC
:1006000029F0405C5F4F6F4F7F4F40781A8EFE1786
:1006100011F081E08A8F4D8F5E8F6F8F78A383E01A
:10062000898FCE0149960E94FD03A096E2E10C94C9
:100630002C29A8E1B0E0EFE1F3E00C941C296983D8
:100640007A838B839C832D833E834F83588789E0F5
:10065000E82EF12CEC0EFD1ECE010196B7010E9492
:10066000D2048E010F5E1F4FCE010596B8010E9485
:10067000D2048985823040F08989823028F0C70110
:10068000B8010E944A0501C08FEF6896E6E00C941D
:100690003829A8E1B0E0EFE4F3E00C941C29698369
:1006A0007A838B839C832D833E834F83588789E095
:1006B000E82EF12CEC0EFD1ECE010196B7010E9432
:1006C000D2048E010F5E1F4FCE010596B8010E9425
:1006D000D2048985823040F08989823028F0C701B0
:1006E000B8010E944A0501C08FEF6896E6E00C94BD
:1006F0003829A8E1B0E0EFE7F3E00C941C29698306
:100700007A838B839C832D833E834F83588789E034
:10071000E82EF12CEC0EFD1ECE010196B7010E94D1
:10072000D2048E010F5E1F4FCE010596B8010E94C4
:10073000D2048985823040F08989823028F0C7014F
:10074000B8010E944A0501C081E06896E6E00C9479
:100750003829ACE0B0E0EFEAF3E00C94202969839B
:100760007A838B839C83CE010196BE016B5F7F4FA2
:100770000E94D2048D81823061F1823050F1843048
:1007800021F48E81882351F12EC02F81388537FDC9
:1007900020C06E812F3131051CF06623F9F023C093
:1007A0008EE190E0821B930B29853A854B855C8511
:1007B00004C056954795379527958A95D2F76623B5
:1007C000B1F050954095309521953F4F4F4F5F4F79
:1007D0000EC020E030E040E050E009C02FEF3FEFD6
:1007E0004FEF5FE704C020E030E040E050E8B9019F
:1007F000CA012C96E2E00C943C29DF92EF92FF9222
:100800000F931F93FC01E480F58006811781D1804E
:100810008081823048F480E090E0A0E1B0E0E82AF6
:10082000F92A0A2B1B2BA5C0843009F49FC0823003
:1008300021F4EE24FF24870105C0E114F104010531
:10084000110519F4E0E0F0E096C0628173819FEF3A
:10085000623879070CF05BC022E83FEF261B370BAC
:100860002A3131052CF020E030E040E050E02AC091
:10087000B801A701022E04C0769567955795479554
:100880000A94D2F781E090E0A0E0B0E004C0880FC5
:10089000991FAA1FBB1F2A95D2F70197A109B10979
:1008A0008E219F21A023B1230097A105B10521F03E
:1008B00081E090E0A0E0B0E09A01AB01282B392B59
:1008C0004A2B5B2BDA01C9018F779070A070B07052
:1008D00080349105A105B10539F427FF09C0205CDA
:1008E0003F4F4F4F5F4F04C0215C3F4F4F4F5F4F13
:1008F000E0E0F0E02030A0E03A07A0E04A07A0E402
:100900005A0710F0E1E0F0E079018A0127C0603871
:10091000710564F5FB01E158FF4FD801C7018F77DE
:100920009070A070B07080349105A105B10539F4C4
:10093000E7FE0DC080E490E0A0E0B0E004C08FE3EB
:1009400090E0A0E0B0E0E80EF91E0A1F1B1F17FFA1
:1009500005C016950795F794E794319687E01695AC
:100960000795F794E7948A95D1F705C0EE24FF2404
:100970008701EFEFF0E06E2F679566276795902F60
:100980009F77D794DD24D7948E2F8695492F462BB9
:10099000582F5D29B701CA011F910F91FF90EF9069
:1009A000DF900895FC01DB01408151812281622F9B
:1009B0006F7770E0221F2227221F9381892F880FD3
:1009C000822B282F30E0991F9927991F11969C930D
:1009D000119721153105A9F54115510561057105DD
:1009E00011F482E037C082E89FEF13969C938E93B8
:1009F00012979A01AB0167E0220F331F441F551F66
:100A00006A95D1F783E08C930DC0220F331F441FEA
:100A1000551F12968D919C911397019713969C9355
:100A20008E931297203080E0380780E0480780E4FA
:100A3000580758F314962D933D934D935C93179755
:100A400008952F3F310579F4411551056105710570
:100A500019F484E08C93089564FF03C081E08C93C3
:100A600012C01C9210C02F57304013963C932E9307
:100A7000129783E08C9387E0440F551F661F771F02
:100A80008A95D1F7706414964D935D936D937C9322
:100A9000179708951F93DC01FB019C91923008F495
:100AA00047C08081823008F443C0943051F41196DD
:100AB0001C91843099F58181682F70E0611B710968
:100AC0003FC0843021F0923031F48230B9F181811D
:100AD000882389F12DC011961C9111978230F1F075
:100AE00081811817D9F412962D913C911397828128
:100AF00093818217930794F028173907BCF0149656
:100B00008D919D910D90BC91A02D248135814681C0
:100B10005781281739074A075B0718F4112341F05A
:100B20000AC082179307A407B50740F4112319F0F0
:100B300061E070E005C06FEF7FEF02C060E070E041
:100B4000CB011F910895DF93CF93CDB7DEB72F97D9
:100B50000FB6F894DEBF0FBECDBF8F8783E063E092
:100B600041E00E94EA0A83E064E040E00E94EA0A71
:100B700082E06F850E94A20983E062E041E00E946A
:100B8000EA0A80E090E0A0E8BFE38B879C87AD870E
:100B9000BE876B857C858D859E8520E030E04AEFA1
:100BA00054E40E941F02DC01CB018F839887A98740
:100BB000BA876F81788589859A8520E030E040E8A2
:100BC0005FE30E94790388232CF481E090E09E8308
:100BD0008D833FC06F81788589859A8520E03FEFBE
:100BE0004FE757E40E94190318164CF56B857C8576
:100BF0008D859E8520E030E040E251E40E941F0296
:100C0000DC01CB01BC01CD010E944900DC01CB011C
:100C10009E838D830FC088EC90E09C838B838B81B7
:100C20009C810197F1F79C838B838D819E81019735
:100C30009E838D838D819E81009769F714C06F819B
:100C4000788589859A850E944900DC01CB019E83C5
:100C50008D838D819E819A83898389819A81019771
:100C6000F1F79A83898383E062E040E00E94EA0A18
:100C70002F960FB6F894DEBF0FBECDBFCF91DF9198
:100C80000895DF93CF93CDB7DEB72F970FB6F894C3
:100C9000DEBF0FBECDBF8F8783E063E040E00E94E0
:100CA000EA0A83E064E040E00E94EA0A82E06F859D
:100CB0000E94A20983E062E041E00E94EA0A80E02B
:100CC00090E0A0E8BFE38B879C87AD87BE876B85EC
:100CD0007C858D859E8520E030E04AEF54E40E94BB
:100CE0001F02DC01CB018F839887A987BA876F81A8
:100CF000788589859A8520E030E040E85FE30E94AE
:100D0000790388232CF481E090E09E838D833FC09B
:100D10006F81788589859A8520E03FEF4FE757E41A
:100D20000E94190318164CF56B857C858D859E8570
:100D300020E030E040E251E40E941F02DC01CB01E0
:100D4000BC01CD010E944900DC01CB019E838D8353
:100D50000FC088EC90E09C838B838B819C810197F2
:100D6000F1F79C838B838D819E8101979E838D8378
:100D70008D819E81009769F714C06F817885898580
:100D80009A850E944900DC01CB019E838D838D8171
:100D90009E819A83898389819A810197F1F79A8349
:100DA000898383E062E040E00E94EA0A2F960FB652
:100DB000F894DEBF0FBECDBFCF91DF910895DF93D2
:100DC000CF93CDB7DEB7E8970FB6F894DEBF0FBE6E
:100DD000CDBF80E090E0A0E2B2E48DAB9EABAFABC4
:100DE000B8AF6DA97EA98FA998AD20E030E04AEF99
:100DF00054E40E941F02DC01CB0189AB9AABABAB80
:100E0000BCAB69A97AA98BA99CA920E030E040E895
:100E10005FE30E94790388232CF481E090E098AB93
:100E20008FA73FC069A97AA98BA99CA920E03FEFB1
:100E30004FE757E40E94190318164CF56DA97EA9D7
:100E40008FA998AD20E030E040E251E40E941F02FB
:100E5000DC01CB01BC01CD010E944900DC01CB01CA
:100E600098AB8FA70FC088EC90E09EA78DA78DA5AB
:100E70009EA50197F1F79EA78DA78FA598A9019729
:100E800098AB8FA78FA598A9009769F714C069A997
:100E90007AA98BA99CA90E944900DC01CB0198ABDF
:100EA0008FA78FA598A99CA78BA78BA59CA5019719
:100EB000F1F79CA78BA788E30E94410680E090E0B1
:100EC000A0E8BFE38FA398A7A9A7BAA76FA178A5A9
:100ED00089A59AA520E030E04AEF54E40E941F0261
:100EE000DC01CB018BA39CA3ADA3BEA36BA17CA112
:100EF0008DA19EA120E030E040E85FE30E947903ED
:100F000088232CF481E090E09AA389A33FC06BA1D1
:100F10007CA18DA19EA120E03FEF4FE757E40E9406
:100F2000190318164CF56FA178A589A59AA520E09C
:100F300030E040E251E40E941F02DC01CB01BC0121
:100F4000CD010E944900DC01CB019AA389A30FC007
:100F500088EC90E098A38F8F8F8D98A10197F1F77F
:100F600098A38F8F89A19AA101979AA389A389A198
:100F70009AA1009769F714C06BA17CA18DA19EA1D5
:100F80000E944900DC01CB019AA389A389A19AA1FF
:100F90009E8F8D8F8D8D9E8D0197F1F79E8F8D8FFA
:100FA0008CE00E94410680E090E0A0E8BFE3898FDA
:100FB0009A8FAB8FBC8F698D7A8D8B8D9C8D20E045
:100FC00030E04AEF54E40E941F02DC01CB018D8B1C
:100FD0009E8BAF8BB88F6D897E898F89988D20E02D
:100FE00030E040E85FE30E94790388232CF481E03D
:100FF00090E09C8B8B8B3FC06D897E898F89988D0B
:1010000020E03FEF4FE757E40E94190318164CF514
:10101000698D7A8D8B8D9C8D20E030E040E251E42B
:101020000E941F02DC01CB01BC01CD010E944900DE
:10103000DC01CB019C8B8B8B0FC088EC90E09A8BF2
:10104000898B89899A890197F1F79A8B898B8B898A
:101050009C8901979C8B8B8B8B899C89009769F766
:1010600014C06D897E898F89988D0E944900DC01AA
:10107000CB019C8B8B8B8B899C89988B8F878F85E1
:1010800098890197F1F7988B8F8781E00E9441063C
:1010900080E090E0A0E0B0E48B879C87AD87BE87BE
:1010A0006B857C858D859E8520E030E04AEF54E499
:1010B0000E941F02DC01CB018F839887A987BA8722
:1010C0006F81788589859A8520E030E040E85FE38C
:1010D0000E94790388232CF481E090E09E838D8325
:1010E0003FC06F81788589859A8520E03FEF4FE783
:1010F00057E40E94190318164CF56B857C858D8585
:101100009E8520E030E040E251E40E941F02DC01B5
:10111000CB01BC01CD010E944900DC01CB019E83C3
:101120008D830FC088EC90E09C838B838B819C81A6
:101130000197F1F79C838B838D819E8101979E831C
:101140008D838D819E81009769F714C06F817885AA
:1011500089859A850E944900DC01CB019E838D839D
:101160008D819E819A83898389819A810197F1F784
:101170009A838983E8960FB6F894DEBF0FBECDBF81
:10118000CF91DF910895DF93CF9300D00F92CDB729
:10119000DEB79B838A8319820EC08981282F30E0B5
:1011A0008A819B81FC01E20FF31F80810E94A305CD
:1011B00089818F5F89838981282F30E08A819B8193
:1011C000FC01E20FF31F8081882339F70F900F9005
:1011D0000F90CF91DF910895DF93CF9300D000D08F
:1011E0000F92CDB7DEB78A836B838A81282F30E0D8
:1011F0003D832C838C819D81009731F02C813D8132
:101200002130310521F006C08B81898303C08B8199
:10121000805C8983898180580E9441060F900F90DD
:101220000F900F900F90CF91DF910895DF93CF93A0
:10123000CDB7DEB727970FB6F894DEBF0FBECDBF90
:101240009C838B836D834E832F838D81882F90E0C9
:10125000880F991F880F991F880F991F8A838A8189
:10126000805C0E94410619820EC08981282F30E0DF
:101270008B819C81FC01E20FF31F80810E94A305FA
:1012800089818F5F89838981883078F38E816F812E
:101290000E94EC088D810E94A30527960FB6F89452
:1012A000DEBF0FBECDBFCF91DF910895DF93CF9307
:1012B000CDB7DEB781E00E944106CF91DF9108955E
:1012C000DF93CF9300D000D0CDB7DEB789836A8398
:1012D0008981282F30E03C832B838B819C81823055
:1012E0009105D9F02B813C812330310534F48B8179
:1012F0009C818130910561F01EC02B813C8123309F
:10130000310581F08B819C818430910581F013C07F
:10131000EAE3F0E08A8180830EC0E7E3F0E08A81AF
:10132000808309C0E4E3F0E08A81808304C0E1E3C4
:10133000F0E08A8180830F900F900F900F90CF91F3
:10134000DF910895DF93CF9300D000D0CDB7DEB703
:1013500089836A838981282F30E03C832B838B81AA
:101360009C8182309105D9F02B813C81233031055D
:1013700034F48B819C818130910561F01EC02B81FA
:101380003C812330310581F08B819C818430910533
:1013900081F013C0EBE3F0E08A8180830EC0E8E3C4
:1013A000F0E08A81808309C0E5E3F0E08A818083F0
:1013B00004C0E2E3F0E08A8180830F900F900F90E9
:1013C0000F90CF91DF910895DF93CF93CDB7DEB724
:1013D00027970FB6F894DEBF0FBECDBF89836A830F
:1013E0004B838A81883008F0ECC08B81813009F012
:1013F00070C08981282F30E03F832E838E819F81AA
:101400008230910551F12E813F812330310534F432
:101410008E819F818130910561F0D3C02E813F8103
:101420002330310571F18E819F8184309105E9F17E
:10143000C8C0AAE3B0E0EAE3F0E08081482F8A81E7
:10144000282F30E081E090E0022E02C0880F991F23
:101450000A94E2F7842B8C93B4C0A7E3B0E0E7E3EF
:10146000F0E08081482F8A81282F30E081E090E0F1
:10147000022E02C0880F991F0A94E2F7842B8C93E6
:10148000A0C0A4E3B0E0E4E3F0E08081482F8A81CB
:10149000282F30E081E090E0022E02C0880F991FD3
:1014A0000A94E2F7842B8C938CC0A1E3B0E0E1E3D3
:1014B000F0E08081482F8A81282F30E081E090E0A1
:1014C000022E02C0880F991F0A94E2F7842B8C9396
:1014D00078C08B81882309F074C08981282F30E07F
:1014E0003D832C838C819D818230910561F12C811B
:1014F0003D812330310534F48C819D81813091050B
:1015000069F05FC02C813D812330310589F18C81E8
:101510009D818430910509F440C053C0AAE3B0E036
:10152000EAE3F0E08081482F8A81282F30E081E0D3
:1015300090E0022E02C0880F991F0A94E2F780956E
:1015400084238C933EC0A7E3B0E0E7E3F0E0808122
:10155000482F8A81282F30E081E090E0022E02C0DF
:10156000880F991F0A94E2F7809584238C9329C0F1
:10157000A4E3B0E0E4E3F0E08081482F8A81282FE3
:1015800030E081E090E0022E02C0880F991F0A949B
:10159000E2F7809584238C9314C0A1E3B0E0E1E3EB
:1015A000F0E08081482F8A81282F30E081E090E0B0
:1015B000022E02C0880F991F0A94E2F780958423B7
:1015C0008C9327960FB6F894DEBF0FBECDBFCF9198
:1015D000DF910895DF93CF93CDB7DEB727970FB68E
:1015E000F894DEBF0FBECDBF89836A834B838A81A7
:1015F000883008F0ECC08B81813009F070C089819F
:10160000282F30E03F832E838E819F818230910589
:1016100051F12E813F812330310534F48E819F8139
:101620008130910561F0D3C02E813F812330310597
:1016300071F18E819F8184309105E9F1C8C0ABE3DF
:10164000B0E0EBE3F0E08081482F8A81282F30E082
:1016500081E090E0022E02C0880F991F0A94E2F701
:10166000842B8C93B4C0A8E3B0E0E8E3F0E0808181
:10167000482F8A81282F30E081E090E0022E02C0BE
:10168000880F991F0A94E2F7842B8C93A0C0A5E3DE
:10169000B0E0E5E3F0E08081482F8A81282F30E038
:1016A00081E090E0022E02C0880F991F0A94E2F7B1
:1016B000842B8C938CC0A2E3B0E0E2E3F0E0808165
:1016C000482F8A81282F30E081E090E0022E02C06E
:1016D000880F991F0A94E2F7842B8C9378C08B8132
:1016E000882309F074C08981282F30E03D832C8342
:1016F0008C819D818230910561F12C813D81233067
:10170000310534F48C819D818130910569F05FC091
:101710002C813D812330310589F18C819D8184307C
:10172000910509F440C053C0ABE3B0E0EBE3F0E057
:101730008081482F8A81282F30E081E090E0022EBE
:1017400002C0880F991F0A94E2F7809584238C9336
:101750003EC0A8E3B0E0E8E3F0E08081482F8A8152
:10176000282F30E081E090E0022E02C0880F991F00
:101770000A94E2F7809584238C9329C0A5E3B0E016
:10178000E5E3F0E08081482F8A81282F30E081E076
:1017900090E0022E02C0880F991F0A94E2F780950C
:1017A00084238C9314C0A2E3B0E0E2E3F0E08081F4
:1017B000482F8A81282F30E081E090E0022E02C07D
:1017C000880F991F0A94E2F7809584238C932796BB
:1017D0000FB6F894DEBF0FBECDBFCF91DF91089555
:1017E000DF93CF9300D000D00F92CDB7DEB78A83BE
:1017F0006B8319828A81282F30E03D832C834C81B2
:101800005D814230510541F18C819D81833091058C
:1018100034F42C813D812130310561F052C04C817E
:101820005D814330510551F18C819D81843091055A
:10183000B9F147C0E9E3F0E08081282F30E08B81E7
:10184000882F90E0A90102C0559547958A95E2F747
:10185000CA018170898335C0E6E3F0E08081282FDA
:1018600030E08B81882F90E0A90102C05595479503
:101870008A95E2F7CA018170898323C0E3E3F0E02F
:101880008081282F30E08B81882F90E0A90102C051
:10189000559547958A95E2F7CA018170898311C0F1
:1018A000E0E3F0E08081282F30E08B81882F90E00A
:1018B000A90102C0559547958A95E2F7CA01817042
:1018C000898389810F900F900F900F900F90CF9187
:1018D000DF910895DF93CF9300D000D0CDB7DEB76E
:1018E00089836A838A81873008F06FC08981282FB5
:1018F00030E03C832B838B819C818230910551F1B8
:101900002B813C812330310534F48B819C818130E3
:10191000910561F05AC02B813C812330310571F172
:101920008B819C8184309105E9F14FC0ABE3B0E03D
:10193000EBE3F0E08081482F8A81282F30E081E0BE
:1019400090E0022E02C0880F991F0A94E2F78427C4
:101950008C933BC0A8E3B0E0E8E3F0E08081482F3F
:101960008A81282F30E081E090E0022E02C0880FAB
:10197000991F0A94E2F784278C9327C0A5E3B0E06F
:10198000E5E3F0E08081482F8A81282F30E081E074
:1019900090E0022E02C0880F991F0A94E2F7842774
:1019A0008C9313C0A2E3B0E0E2E3F0E08081482F23
:1019B0008A81282F30E081E090E0022E02C0880F5B
:1019C000991F0A94E2F784278C930F900F900F9041
:1019D0000F90CF91DF910895DF93CF93CDB7DEB70E
:1019E00063970FB6F894DEBF0FBECDBF998B888B7F
:1019F0006A8B4B8B8B89882F90E0880F991F880FFB
:101A0000991F282F206588899989892F9927822BEA
:101A10008F870E94BB108F850E94D51088890E94F5
:101A200027118A890E9427110E94571180E090E0B7
:101A3000A0E2B1E48B879C87AD87BE876B857C85F0
:101A40008D859E8520E030E04AEF54E40E941F021D
:101A5000DC01CB018F839887A987BA876F8178854E
:101A600089859A8520E030E040E85FE30E947903B1
:101A700088232CF481E090E09E838D833FC06F81AA
:101A8000788589859A8520E03FEF4FE757E40E94EB
:101A9000190318164CF56B857C858D859E8520E095
:101AA00030E040E251E40E941F02DC01CB01BC01A6
:101AB000CD010E944900DC01CB019E838D830FC0C4
:101AC00088EC90E09C838B838B819C810197F1F75C
:101AD0009C838B838D819E8101979E838D838D81D5
:101AE0009E81009769F714C06F81788589859A85F2
:101AF0000E944900DC01CB019E838D838D819E81F4
:101B00009A83898389819A810197F1F79A838983DE
:101B100063960FB6F894DEBF0FBECDBFCF91DF91B5
:101B20000895DF93CF9300D000D00F92CDB7DEB7EA
:101B30009C838B836D838D81882F90E0880F991F04
:101B4000880F991F282F20658B819C81892F9927C9
:101B5000822B89830E94BB1089810E94D5108B81C2
:101B60000E9427110E94BB1089810E94FE100E94D2
:101B700041118A830E9457118A810F900F900F9014
:101B80000F900F90CF91DF910895DF93CF93CDB752
:101B9000DEB72A970FB6F894DEBF0FBECDBF89839C
:101BA0006A838981282F30E03A87298789859A8539
:101BB0008130910551F129853A852230310509F4AA
:101BC00043C089859A85009709F05CC08A81282FD7
:101BD00030E038872F838F819885009731F02F81EF
:101BE00038852130310549F04DC0ABE5B0E0EBE57B
:101BF000F0E0808180648C9345C0ABE5B0E0EBE51C
:101C0000F0E080818F7B8C933DC08A81282F30E06B
:101C10003E832D838D819E81009731F02D813E8101
:101C20002130310549F02EC0ABE5B0E0EBE5F0E046
:101C3000808180688C9326C0ABE5B0E0EBE5F0E0F6
:101C400080818F778C931EC08A81282F30E03C835F
:101C50002B838B819C81009731F02B813C8121303B
:101C6000310549F00FC0ABE5B0E0EBE5F0E0808175
:101C700080628C9307C0ABE5B0E0EBE5F0E08081DB
:101C80008F7D8C932A960FB6F894DEBF0FBECDBF22
:101C9000CF91DF910895DF93CF93CDB7DEB72A9729
:101CA0000FB6F894DEBF0FBECDBF89836A838981EA
:101CB000282F30E03A87298789859A8581309105D8
:101CC00009F466C029853A852230310509F4BBC084
:101CD00089859A85009709F0D5C08A81282F30E040
:101CE00038872F838F8198858130910521F12F814D
:101CF0003885223031052CF48F819885009761F06A
:101D0000C1C02F8138852230310521F18F8198851E
:101D10008330910571F1B6C0A5E5B0E0E5E5F0E0EE
:101D200080818E7F8C93A5E5B0E0E5E5F0E08081D1
:101D30008D7F8C93A7C0A5E5B0E0E5E5F0E080815C
:101D400081608C93A5E5B0E0E5E5F0E080818D7FD2
:101D50008C9398C0A5E5B0E0E5E5F0E080818E7F4A
:101D60008C93A5E5B0E0E5E5F0E0808182608C939E
:101D700089C0A5E5B0E0E5E5F0E0808181608C9365
:101D8000A5E5B0E0E5E5F0E0808182608C937AC063
:101D90008A81282F30E03E832D838D819E81813082
:101DA000910521F12D813E81223031052CF48D8168
:101DB0009E81009761F066C02D813E812230310501
:101DC00021F18D819E818330910571F15BC0A5E584
:101DD000B0E0E5E5F0E080818B7F8C93A5E5B0E095
:101DE000E5E5F0E08081877F8C934CC0A5E5B0E00D
:101DF000E5E5F0E0808184608C93A5E5B0E0E5E561
:101E0000F0E08081877F8C933DC0A5E5B0E0E5E5FB
:101E1000F0E080818B7F8C93A5E5B0E0E5E5F0E014
:101E2000808188608C932EC0A5E5B0E0E5E5F0E008
:101E3000808184608C93A5E5B0E0E5E5F0E08081E9
:101E400088608C931FC08A81282F30E03C832B83CD
:101E50008B819C818230910531F02B813C81233034
:101E6000310549F00FC0A4E5B0E0E4E5F0E0808181
:101E70008F7B8C9307C0A4E5B0E0E4E5F0E08081BF
:101E800080648C932A960FB6F894DEBF0FBECDBF48
:101E9000CF91DF910895DF93CF9300D000D000D091
:101EA000CDB7DEB78A837C836B8319828A81282F22
:101EB00030E03E832D838D819E8181309105B9F084
:101EC0002D813E812230310501F18D819E81009767
:101ED00049F58B819C81009739F08B819C8190938F
:101EE0002901809328011EC081E089831BC08B815A
:101EF0009C81009739F08B819C8190932B0180937A
:101F00002A0110C081E089830DC08B819C810097DC
:101F100039F08B819C8190932D0180932C0102C01C
:101F200081E08983898126960FB6F894DEBF0FBEC3
:101F3000CDBFCF91DF9108951F920F920FB60F92F0
:101F400011242F933F934F935F936F937F938F93BE
:101F50009F93AF93BF93EF93FF93DF93CF93CDB74F
:101F6000DEB7E0912801F09129010995CF91DF9129
:101F7000FF91EF91BF91AF919F918F917F916F9161
:101F80005F914F913F912F910F900FBE0F901F9037
:101F900018951F920F920FB60F9211242F933F9313
:101FA0004F935F936F937F938F939F93AF93BF9361
:101FB000EF93FF93DF93CF93CDB7DEB7E0912A0184
:101FC000F0912B010995CF91DF91FF91EF91BF9196
:101FD000AF919F918F917F916F915F914F913F91C1
:101FE0002F910F900FBE0F901F9018951F920F9278
:101FF0000FB60F9211242F933F934F935F936F93DC
:102000007F938F939F93AF93BF93EF93FF93DF9350
:10201000CF93CDB7DEB7E0912C01F0912D0109955A
:10202000CF91DF91FF91EF91BF91AF919F918F91F0
:102030007F916F915F914F913F912F910F900FBEC4
:102040000F901F901895DF93CF93CDB7DEB7AFE514
:10205000B0E0EFE5F0E0808180688C93CF91DF9174
:102060000895DF93CF93CDB7DEB7AFE5B0E0EFE5EE
:10207000F0E080818F778C93CF91DF910895DF938B
:10208000CF9300D000D00F92CDB7DEB76B837C83A7
:102090008D831A828B81482F50E08C81282F30E06D
:1020A000CA01B9010E94F00B89838D81882331F424
:1020B0008981882359F481E08A8308C08D81813029
:1020C00029F48981813011F481E08A838A810F901B
:1020D0000F900F900F900F90CF91DF910895DF93A5
:1020E000CF930F92CDB7DEB78983E0E2F0E08CE0CA
:1020F0008083A1E2B0E0E1E2F0E080818E7F8C930A
:10210000A1E2B0E0E1E2F0E080818D7F8C93A6E572
:10211000B0E0E6E5F0E0808180648C93E2E2F0E0FC
:102120008981880F8083A6E5B0E0E6E5F0E0808154
:1021300084608C930F90CF91DF910895DF93CF93BC
:102140000F92CDB7DEB78983A6E5B0E0E6E5F0E013
:10215000808180648C93E2E2F0E08981880F808343
:10216000A6E5B0E0E6E5F0E0808184608C930F9016
:10217000CF91DF910895DF93CF93CDB7DEB7A6E57A
:10218000B0E0E6E5F0E0808180628C93A6E5B0E007
:10219000E6E5F0E0808180688C93E6E5F0E0808100
:1021A0008823DCF7CF91DF910895DF93CF930F92CF
:1021B000CDB7DEB78983E3E2F0E08981880F8083C1
:1021C000A3E2B0E0E3E2F0E080818E7F8C93A6E5AD
:1021D000B0E0E6E5F0E080818F7D8C93A6E5B0E08D
:1021E000E6E5F0E0808180688C93E6E5F0E08081B0
:1021F0008823DCF70F90CF91DF910895DF93CF9381
:102200000F92CDB7DEB78983E3E2F0E08981880FD2
:102210008083A3E2B0E0E3E2F0E0808181608C9310
:10222000A6E5B0E0E6E5F0E080818F7D8C93A6E541
:10223000B0E0E6E5F0E0808180688C93E6E5F0E0D0
:1022400080818823DCF70F90CF91DF910895DF9391
:10225000CF930F92CDB7DEB78983E3E2F0E08981B7
:102260008083A6E5B0E0E6E5F0E0808180688C93AD
:10227000E6E5F0E080818823DCF70F90CF91DF91D5
:102280000895DF93CF93CDB7DEB7A6E5B0E0E6E5DE
:10229000F0E0808180688C93E6E5F0E0808188231F
:1022A000DCF7E3E2F0E08081CF91DF910895DF93E6
:1022B000CF93CDB7DEB7A6E5B0E0E6E5F0E08081EC
:1022C00080618C93CF91DF910895DF93CF930F922C
:1022D000CDB7DEB719828981806889838981826060
:1022E00089838981846089838981877F8983E0E408
:1022F000F0E089818083E9E2F0E083E38083AAE271
:10230000B0E0EAE2F0E080818B7F8C93AAE2B0E05B
:10231000EAE2F0E0808188608C93AAE2B0E0EAE231
:10232000F0E0808180618C930F90CF91DF910895D0
:10233000DF93CF930F92CDB7DEB78983EBE2F0E066
:102340008081829586958770882F90E0817090704B
:102350000097A1F3ECE2F0E0898180830F90CF91A8
:10236000DF910895DF93CF93CDB7DEB7EBE2F0E0D6
:1023700080818823DCF7ECE2F0E08081CF91DF916F
:102380000895DF93CF93CDB7DEB727970FB6F894B4
:10239000DEBF0FBECDBF9D838C836E834F838AE1EA
:1023A00090E00E9499149A83898389819A81009789
:1023B00009F46FC080912E0190912F01009741F494
:1023C00089819A8190932F0180932E010E94281475
:1023D0008E81823010F081E08E83E981FA81118E46
:1023E000108EE981FA818E81868BE981FA818F8155
:1023F000878BE981FA818C819D819183808389819A
:102400009A8102960E942F1589819A810C960E94CA
:102410002F15E981FA8189819A8191878087E981E5
:10242000FA8189819A81938B828B8E81282F30E06B
:1024300085E090E0821B930BE981FA819587848780
:10244000E981FA81968980913001891728F4E98120
:10245000FA81868980933001E981FA818689282F63
:1024600030E0C901880F991F880F991F880F991FA5
:10247000820F931FAC01495C5E4F89819A819C0158
:102480002E5F3F4FCA01B9010E943F1581E08B8347
:1024900002C08FEF8B838B8127960FB6F894DEBF37
:1024A0000FBECDBFCF91DF910895DF93CF9300D0C2
:1024B00000D000D0CDB7DEB79C838B837E836D8345
:1024C00020913101309132018B819C81820F931FC9
:1024D0009A83898380912E0190912F0102960E9408
:1024E000F715E0912E01F0912F0189819A81938354
:1024F0008283209131013091320189819A81821742
:10250000930770F480915D0190915E0120912E01FE
:1025100030912F012E5F3F4FB9010E948B150DC0E6
:1025200080915B0190915C0120912E0130912F01EF
:102530002E5F3F4FB9010E948B158D819E810097C0
:1025400061F080912E0190912F019C01245F3F4FFB
:102550008D819E81B9010E948B1526960FB6F89445
:10256000DEBF0FBECDBFCF91DF910895DF93CF9334
:1025700000D0CDB7DEB73AC0F894E0916401F09195
:102580006501868197819A83898389819A810C96D6
:102590000E94F715789489819A8102960E94F71516
:1025A000E981FA81968980913001891728F4E981BF
:1025B000FA81868980933001E981FA818689282F02
:1025C00030E0C901880F991F880F991F880F991F44
:1025D000820F931FAC01495C5E4F89819A819C01F7
:1025E0002E5F3F4FCA01B9010E943F1580915F01E4
:1025F000882309F0C1CF0F900F90CF91DF910895FC
:10260000DF93CF9300D000D0CDB7DEB70E94F72480
:102610002091330130913401821B930B909336014A
:102620008093350185C080913101909132010196EE
:102630009093320180933101809135019091360160
:1026400001979093360180933501809131019091EB
:102650003201009709F064C080915B0190915C01A8
:102660009A83898380915D0190915E0190935C01D2
:1026700080935B0189819A8190935E0180935D01D3
:102680004FC0E0915B01F0915C010580F681E02D87
:10269000868197819C838B83EB81FC8122813381AE
:1026A00080913101909132018217930708F440C064
:1026B000F8948B819C8102960E94F715EB81FC8136
:1026C00084899589009729F08B819C810C960E94C2
:1026D000F7157894EB81FC819689809130018917F8
:1026E00028F4EB81FC81868980933001EB81FC81A9
:1026F0008689282F30E0C901880F991F880F991FFC
:10270000880F991F820F931FAC01495C5E4F8B812C
:102710009C819C012E5F3F4FCA01B9010E943F1569
:10272000E0915B01F0915C018081882309F0A9CFE1
:102730008091350190913601009709F074CF809116
:1027400031019091320190933401809333010F90C5
:102750000F900F900F90CF91DF910895DF93CF935B
:1027600000D0CDB7DEB70E94B6120E9400130AC097
:1027700080913001882309F466C080913001815036
:102780008093300180913001282F30E0C901880FFB
:10279000991F880F991F880F991F820F931FFC01A3
:1027A000E95CFE4F8081882319F380913001282F46
:1027B00030E0C901880F991F880F991F880F991F52
:1027C000820F931F895C9E4F9A838983E981FA81E6
:1027D0000180F281E02D82819381E981FA819283E7
:1027E0008183E981FA812181328189819A810396ED
:1027F0002817390759F4E981FA810180F281E02D27
:1028000082819381E981FA8192838183E981FA81CE
:102810000180F281E02D8681978190932F01809332
:102820002E01E0912E01F0912F0140815181809184
:102830002E0190912F01E0912E01F0912F01278917
:10284000622FFA0109950F900F90CF91DF910895B3
:10285000DF93CF930F92CDB7DEB7198213C0898172
:10286000282F30E0C901880F991F880F991F880F02
:10287000991F820F931F895C9E4F0E9405158981C5
:102880008F5F89838981823050F389E491E00E94CF
:10289000051582E591E00E9405158FE591E00E9403
:1028A000051589E491E090935C0180935B0182E5DA
:1028B00091E090935E0180935D010F90CF91DF9145
:1028C0000895DF93CF9300D000D00F92CDB7DEB73D
:1028D0009D838C83EC81FD810580F681E02D8681CE
:1028E00097819B838A838A819B810C960E94F7152E
:1028F0008A819B819C01245F3F4F8FE591E0B90164
:102900000E943F15EA81FB819689E0912E01F091AA
:102910002F018689981718F081E0898301C01982F8
:1029200089810F900F900F900F900F90CF91DF91B2
:102930000895DF93CF9300D000D0CDB7DEB79C834E
:102940008B831A8219820E94612480916801909180
:1029500069012B813C81820F931F24E0803B920709
:1029600018F520916801309169018B819C81280FB5
:10297000391F809168019091690182179307A0F433
:10298000809168019091690186599E4F9A8389834D
:1029900020916801309169018B819C81820F931F86
:1029A00090936901809368010E946D2489819A81C6
:1029B0000F900F900F900F90CF91DF910895DF93BC
:1029C000CF9300D0CDB7DEB79A8389830F900F9055
:1029D000CF91DF910895DF93CF93CDB7DEB71092FB
:1029E000690110926801CF91DF910895DF93CF9331
:1029F000CDB7DEB7209168013091690180EB94E09A
:102A0000821B930BCF91DF910895DF93CF9300D07A
:102A1000CDB7DEB79A83898389819A810396E9814C
:102A2000FA8192838183E981FA818FEF9FEF94830A
:102A3000838389819A810396E981FA8196838583CC
:102A400089819A810396E981FA8190878783E98158
:102A5000FA8110820F900F90CF91DF910895DF934C
:102A6000CF9300D0CDB7DEB79A838983E981FA810D
:102A7000118610860F900F90CF91DF910895DF930C
:102A8000CF9300D000D000D0CDB7DEB79C838B832E
:102A90007E836D83EB81FC81818192819A8389831E
:102AA000E981FA8182819381ED81FE819383828322
:102AB000EB81FC8181819281ED81FE81958384830C
:102AC000E981FA810280F381E02D8D819E819583D9
:102AD00084838D819E81E981FA81938382838D81B4
:102AE0009E81EB81FC8192838183ED81FE818B81CC
:102AF0009C8191878087EB81FC8180818F5FEB8156
:102B0000FC81808326960FB6F894DEBF0FBECDBF42
:102B1000CF91DF910895DF93CF93CDB7DEB728979C
:102B20000FB6F894DEBF0FBECDBF9E838D8378872E
:102B30006F83EF81F885808191819A838983898170
:102B40009A812FEF8F3F920739F4ED81FE818781C3
:102B500090859C838B8318C08D819E8103969C8376
:102B60008B8306C0EB81FC81828193819C838B8364
:102B7000EB81FC810280F381E02D2081318189810C
:102B80009A818217930770F7EB81FC818281938190
:102B9000EF81F88593838283EF81F8850280F3814A
:102BA000E02D8F81988595838483EF81F8858B81D3
:102BB0009C81958384838F819885EB81FC819383AD
:102BC0008283EF81F8858D819E8191878087ED8159
:102BD000FE8180818F5FED81FE81808328960FB614
:102BE000F894DEBF0FBECDBFCF91DF910895DF9384
:102BF000CF9300D000D0CDB7DEB79C838B83EB8121
:102C0000FC81A281B381EB81FC8184819581159641
:102C10009C938E931497EB81FC81A481B581EB8109
:102C2000FC818281938113969C938E931297EB8102
:102C3000FC81808591859A838983E981FA8121814C
:102C400032818B819C812817390741F4EB81FC810B
:102C500084819581E981FA8192838183EB81FC8172
:102C600011861086E981FA8180818150E981FA819B
:102C700080830F900F900F900F90CF91DF91089568
:102C8000DF93CF9300D00F92CDB7DEB79B838A83BB
:102C9000809194069091950660E070E04FEF5FEFB1
:102CA00020E00E94381F89838981813089F70E9442
:102CB000B21180931A06809194069091950660E077
:102CC00070E040E050E020E00E944D1E81E090E086
:102CD0000E94E923DDCFDF93CF9300D000D00F9285
:102CE000CDB7DEB79B838A8380911F069091200623
:102CF000A0912106B09122060196A11DB11D8093DD
:102D00001F0690932006A0932106B093220680917F
:102D100094069091950660E070E04FEF5FEF20E041
:102D20000E94381F898389818130F1F680911A06CB
:102D3000282F30E03D832C838C819D818533910544
:102D400009F4CDC02C813D81263331052CF58C81D1
:102D50009D818233910509F47AC02C813D81233312
:102D600031056CF48C819D818033910509F43FC05D
:102D70002C813D812133310509F451C057C18C812B
:102D80009D818333910509F47AC02C813D812433E0
:102D9000310509F48CC04AC18C819D81883391052D
:102DA00009F4E5C02C813D81293331056CF48C8117
:102DB0009D818633910509F4AAC02C813D8127337A
:102DC000310509F4BCC032C18C819D8181349105EB
:102DD00009F4FDC02C813D812234310509F40FC175
:102DE0008C819D818933910509F4D9C01FC181E08F
:102DF00060E041E00E94EA0A80911F06909120065F
:102E0000A0912106B091220680938C0620918C0619
:102E100080E090E0622F41E00E94EC0C07C181E06D
:102E200064E041E00E94EA0A80911F06909120062A
:102E3000A0912106B09122068093890620918906EF
:102E40008AE090E0622F41E00E94EC0CEFC083E04A
:102E500066E041E00E94EA0A80911F0690912006F8
:102E6000A0912106B091220680938D0620918D06B7
:102E700084E190E0622F41E00E94EC0CD7C084E036
:102E800065E040E00E94EA0A80911F0690912006CA
:102E9000A0912106B091220680939106209191067F
:102EA00088E290E0622F41E00E94EC0CBFC084E019
:102EB00063E041E00E94EA0A80911F06909120069B
:102EC000A0912106B091220680938E0620918E0655
:102ED0008CE390E0622F41E00E94EC0CA7C081E0FF
:102EE00067E041E00E94EA0A80911F069091200667
:102EF000A0912106B0912206809397062091970613
:102F000080E590E0622F41E00E94EC0C8FC081E0F0
:102F100060E040E00E94EA0A80911F06909120063E
:102F2000A0912106B09122068093920620919206EC
:102F300080E590E0622F41E00E94EC0C77C081E0D8
:102F400064E040E00E94EA0A80911F06909120060A
:102F5000A0912106B091220680938F0620918F06C2
:102F600084E690E0622F41E00E94EC0C5FC083E0B9
:102F700066E040E00E94EA0A80911F0690912006D8
:102F8000A0912106B091220680938A0620918A069C
:102F900088E790E0622F41E00E94EC0C47C084E09B
:102FA00065E041E00E94EA0A80911F0690912006A8
:102FB000A0912106B0912206809390062091900660
:102FC00086E990E0622F41E00E94EC0C2FC084E083
:102FD00065E040E00E94EA0A80911F069091200679
:102FE000A0912106B091220680939306209193062A
:102FF00088EC90E0622F41E00E94EC0C17C081E069
:1030000067E040E00E94EA0A80911F069091200646
:10301000A0912106B09122068093960620919606F3
:103020008CE291E0622F41E00E94EC0C80919406CA
:103030009091950660E070E040E050E020E00E9452
:103040004D1E81E090E00E94E9234ECEDF93CF93A6
:10305000CDB7DEB763970FB6F894DEBF0FBECDBF16
:10306000998B888B809194069091950660E070E032
:103070004FEF5FEF20E00E94381F8F878F858130F0
:1030800089F780911A06282F30E03B8B2A8B8A899A
:103090009B898533910509F48CC02A893B892633A5
:1030A00031052CF58A899B898233910509F460C02A
:1030B0002A893B89233331056CF48A899B898033C3
:1030C000910509F43FC02A893B892133310509F470
:1030D00044C0BBC08A899B898333910509F453C0DE
:1030E0002A893B892433310509F458C0AEC08A8946
:1030F0009B898833910509F47DC02A893B8929334E
:1031000031056CF48A899B898633910509F45CC08A
:103110002A893B892733310509F461C096C08A8921
:103120009B898134910509F47BC02A893B8922342B
:10313000310509F480C08A899B898933910509F496
:1031400064C083C00E94560980E060E00E94EC08E1
:1031500080E690E00E94C30878C00E94560980E093
:1031600060E00E94EC088BE690E00E94C3086DC00E
:103170000E94560980E060E00E94EC0887E790E03A
:103180000E94C30862C00E94560980E060E00E946D
:10319000EC0886E890E00E94C30857C00E945609D8
:1031A00080E060E00E94EC0885E990E00E94C3089E
:1031B0004CC00E94560980E060E00E94EC0882EA60
:1031C00090E00E94C30841C00E94560980E060E080
:1031D0000E94EC088DEA90E00E94C30836C00E946D
:1031E000560980E060E00E94EC088BEB90E00E94C2
:1031F000C3082BC00E94560980E060E00E94EC08E2
:1032000089EC90E00E94C30820C00E94560980E02B
:1032100060E00E94EC0889ED90E00E94C30815C0B0
:103220000E94560980E060E00E94EC0889EE90E080
:103230000E94C3080AC00E94560980E060E00E9414
:10324000EC0889EF90E00E94C30881E066E041E06D
:103250000E94EA0A80E090E0A8E4B2E48B879C87B1
:10326000AD87BE876B857C858D859E8520E030E0AF
:103270004AEF54E40E941F02DC01CB018F83988740
:10328000A987BA876F81788589859A8520E030E0A3
:1032900040E85FE30E94790388232CF481E090E00A
:1032A0009E838D833FC06F81788589859A8520E0D4
:1032B0003FEF4FE757E40E94190318164CF56B8552
:1032C0007C858D859E8520E030E040E251E40E94BF
:1032D0001F02DC01CB01BC01CD010E944900DC01D1
:1032E000CB019E838D830FC088EC90E09C838B8301
:1032F0008B819C810197F1F79C838B838D819E81CB
:1033000001979E838D838D819E81009769F714C0FC
:103310006F81788589859A850E944900DC01CB01FF
:103320009E838D838D819E819A83898389819A81F1
:103330000197F1F79A83898381E066E040E00E947B
:10334000EA0A809194069091950660E070E040E072
:1033500050E020E00E944D1E8AE090E00E94E923A8
:1033600081CEDF93CF93CDB7DEB728970FB6F89411
:10337000DEBF0FBECDBF9A83898360911901709122
:103380001A0180911B010E943F108823C1F0809197
:1033900025061D82882311F481E08D838D81809321
:1033A0002506809125068E838E81882311F081E089
:1033B0008E839E8181E060E0492F0E94EA0A60913D
:1033C0001F0170912001809121010E943F108823EC
:1033D000C1F0809124061C82882311F481E08C8343
:1033E0008C8180932406809124068F838F8188238B
:1033F00011F081E08F839F8181E064E0492F0E947A
:10340000EA0A6091220170912301809124010E94B7
:103410003F108823C1F0809123061B82882311F47A
:1034200081E08B838B81809323068091230688879C
:103430008885882311F081E08887988583E066E09D
:10344000492F0E94EA0A81E090E00E94E92395CF8B
:10345000AF92BF92CF92DF92EF92FF920F93DF93E2
:10346000CF93CDB7DEB784E060E040E00E94E4098E
:1034700084E061E040E00E94E40984E060E00E94B2
:10348000600981E06FEF0E94600983E06FEF0E94A6
:10349000600982E06FEF0E94600984E062E041E031
:1034A0000E94EA0A84E064E041E00E94EA0A84E0C3
:1034B00066E041E00E94EA0A84E067E041E00E94A1
:1034C000EA0A84E065E041E00E94E40984E063E008
:1034D00041E00E94E4090E9465110E94DF0681E03C
:1034E0000E946F1081E060E00E94A41D90939506F9
:1034F000809394068091940690919506009759F0D8
:10350000809194069091950660E070E040E050E074
:1035100020E00E944D1E80E496E160E070E046E904
:1035200050E020E030E001E0EE24FF24CC24DD2454
:10353000AA24BB240E9425228BE696E160E070E07D
:1035400046E950E020E030E002E0EE24FF24CC2405
:10355000DD24AA24BB240E94252286E298E160E0B3
:1035600070E046E950E020E030E004E0EE24FF2483
:10357000CC24DD24AA24BB240E94252281EB99E1DE
:1035800060E070E046E950E020E030E003E0EE2447
:10359000FF24CC24DD24AA24BB240E9425220E94DF
:1035A0001E24FFCFDF93CF93CDB7DEB728970FB69A
:1035B000F894DEBF0FBECDBF9C838B837E836D836B
:1035C00058874F83EB81FC8181E180838B819C81D3
:1035D00001979C838B83EB81FC8182E280838B81CA
:1035E0009C8101979C838B83EB81FC8183E38083A7
:1035F0008B819C8101979C838B838D819E819A8393
:1036000089838981EB81FC8180838B819C810197F7
:103610009C838B8389819A81892F99279A838983B7
:103620008981EB81FC8180838B819C8101979C83C4
:103630008B83EB81FC8110828B819C8101979C8321
:103640008B83EB81FC8180E880838B819C81019757
:103650009C838B83EB81FC8110828B819C81019701
:103660009C838B83EB81FC8182E080838B819C81B6
:1036700001979C838B83EB81FC8183E080838B812A
:103680009C8101979C838B83EB81FC8184E0808308
:103690008B819C8101979C838B83EB81FC8185E0EE
:1036A00080838B819C8101979C838B83EB81FC8140
:1036B00086E080838B819C8101979C838B83EB8147
:1036C000FC8187E080838B819C8101979C838B8325
:1036D000EB81FC8188E080838B819C8101979C83B6
:1036E0008B83EB81FC8189E080838B819C810197B6
:1036F0009C838B83EB81FC8180E180838B819C8127
:1037000001979C838B83EB81FC8181E180838B819A
:103710009C8101979C838B83EB81FC8182E1808378
:103720008B819C8101979C838B83EB81FC8183E15E
:1037300080838B819C8101979C838B83EB81FC81AF
:1037400084E180838B819C8101979C838B83EB81B7
:10375000FC8185E180838B819C8101979C838B8395
:10376000EB81FC8186E180838B819C8101979C8326
:103770008B83EB81FC8187E180838B819C81019726
:103780009C838B83EB81FC8188E180838B819C818E
:1037900001979C838B83EB81FC8189E180838B8102
:1037A0009C8101979C838B83EB81FC8180E28083E9
:1037B0008B819C8101979C838B83EB81FC8181E2CF
:1037C00080838B819C8101979C838B83EB81FC811F
:1037D00082E280838B819C8101979C838B83EB8128
:1037E000FC8183E280838B819C8101979C838B8306
:1037F0008F8198859A8389838981EB81FC8180837D
:103800008B819C8101979C838B8389819A81892FED
:1038100099279A8389838981EB81FC8180838B81BD
:103820009C8101979C838B83EB81FC8186E2808362
:103830008B819C8101979C838B83EB81FC8187E248
:1038400080838B819C8101979C838B83EB81FC819E
:1038500088E280838B819C8101979C838B83EB81A1
:10386000FC8189E280838B819C8101979C838B837F
:10387000EB81FC8180E380838B819C8101979C8319
:103880008B83EB81FC8181E380838B819C81019719
:103890009C838B838B819C8128960FB6F894DEBF26
:1038A0000FBECDBFCF91DF910895DF93CF93CDB7FA
:1038B000DEB70E94451DA0912606B0912706CD9146
:1038C000CDBFDD91DEBFFF91EF91DF91CF91BF9131
:1038D000AF919F918F917F916F915F914F913F91A8
:1038E0002F911F910F91FF90EF90DF90CF90BF909D
:1038F000AF909F908F907F906F905F904F903F9090
:103900002F901F900F900FBE0F90089581E0CF91E0
:10391000DF910895DF93CF93CDB7DEB7CF91DF91DD
:1039200008950F920FB6F8940F921F9211242F92C0
:103930003F924F925F926F927F928F929F92AF923F
:10394000BF92CF92DF92EF92FF920F931F932F932C
:103950003F934F935F936F937F938F939F93AF9317
:10396000BF93CF93DF93EF93FF93A0912606B0917F
:1039700027060DB60D920EB60D920E940126A0915B
:103980002606B0912706CD91CDBFDD91DEBFFF9118
:10399000EF91DF91CF91BF91AF919F918F917F91E7
:1039A0006F915F914F913F912F911F910F91FF90D8
:1039B000EF90DF90CF90BF90AF909F908F907F90CF
:1039C0006F905F904F903F902F901F900F900FBE81
:1039D0000F9008950F920FB6F8940F921F92112432
:1039E0002F923F924F925F926F927F928F929F920F
:1039F000AF92BF92CF92DF92EF92FF920F931F93FD
:103A00002F933F934F935F936F937F938F939F93E6
:103A1000AF93BF93CF93DF93EF93FF93A0912606CD
:103A2000B09127060DB60D920EB60D920E942C2570
:103A30000E940126A0912606B0912706CD91CDBF08
:103A4000DD91DEBFFF91EF91DF91CF91BF91AF91FB
:103A50009F918F917F916F915F914F913F912F91A6
:103A60001F910F91FF90EF90DF90CF90BF90AF909C
:103A70009F908F907F906F905F904F903F902F908E
:103A80001F900F900FBE0F900895DF93CF9300D03B
:103A900000D000D0CDB7DEB780E89EE3A0E0B0E074
:103AA0008B839C83AD83BE838B819C81AD81BE81E2
:103AB000689415F8B695A795979587951694D1F7BC
:103AC0008B839C83AD83BE838B819C81AD81BE81C2
:103AD0000197A109B1098B839C83AD83BE838B8140
:103AE00089838B819C81AD81BE81892F9A2FAB2FD9
:103AF000BB278B839C83AD83BE838B818A83EBE45E
:103B0000F0E08A818083EAE4F0E0898180838BE0C1
:103B10008983EEE4F0E089818083E9E5F0E080814B
:103B20008983898180618983E9E5F0E089818083E7
:103B300026960FB6F894DEBF0FBECDBFCF91DF91B2
:103B400008950E94EA1C1895DF93CF93CDB7DEB796
:103B500028970FB6F894DEBF0FBECDBF8F8368875E
:103B60001A8219828F81882309F48CC08FE190E03A
:103B70000E9499149E838D838D819E81009709F404
:103B800081C08F81282F30E08885882F90E0AC019C
:103B9000249FC001259F900D349F900D1124019604
:103BA0009C838B838B819C810E949914ED81FE8183
:103BB00091838083ED81FE8180819181009709F45A
:103BC0005DC0ED81FE81408151818F81282F30E0E1
:103BD0008885882F90E0BC01269FC001279F900D0B
:103BE000369F900D1124840F951FED81FE819383E4
:103BF0008283ED81FE81128EED81FE818081918133
:103C0000ED81FE8195838483ED81FE814081518128
:103C10008F81882F90E09C01215030408885882F2B
:103C200090E0BC01269FC001279F900D369F900D0C
:103C30001124840F951FED81FE8197838683ED818A
:103C4000FE818F81838FED81FE818885848FED8158
:103C5000FE818FEF858FED81FE818FEF868F8D81C5
:103C60009E8108960E9405158D819E8141960E9435
:103C700005158D819E819A83898304C08D819E81E3
:103C80000E94DF1489819A8128960FB6F894DEBFCE
:103C90000FBECDBFCF91DF910895DF93CF93CDB706
:103CA000DEB72C970FB6F894DEBF0FBECDBF9E8354
:103CB0008D8378876F835A8749872B8719820FB640
:103CC000F8940F92ED81FE81928DED81FE81838DBE
:103CD0009817D8F48D819E812F813885B9014B8545
:103CE0000E948820ED81FE818189882349F08D81A1
:103CF0009E8141960E949D26813011F40E94911C64
:103D00000F900FBE81E08C875CC089859A850097F3
:103D100021F40F900FBE1C8654C08981882331F492
:103D2000CE0102960E94052781E089830F900FBE85
:103D30000E9461240FB6F8940F92ED81FE81858D6B
:103D40008F3F19F4ED81FE81158EED81FE81868D08
:103D50008F3F19F4ED81FE81168E0F900FBECE01BC
:103D600002969E01275F3F4FB9010E941E278823BC
:103D700009F58D819E810E94EC218823A1F08D811F
:103D80009E81089629853A85B9010E9467268D8112
:103D90009E810E9465210E946D24882309F08FCFA7
:103DA0000E94911C8CCF8D819E810E9465210E9472
:103DB0006D2485CF8D819E810E9465210E946D2496
:103DC0001C868C852C960FB6F894DEBF0FBECDBF37
:103DD000CF91DF910895DF93CF93CDB7DEB72997C9
:103DE0000FB6F894DEBF0FBECDBF9C838B837E835E
:103DF0006D8358874F8329871982EB81FC81928DCF
:103E0000EB81FC81838D981740F58B819C812D81FE
:103E10003E81B90149850E948820EB81FC81868D15
:103E20008F3F89F4EB81FC818189882399F08B8114
:103E30009C8141960E949D26882361F0EF81F88540
:103E400081E0808307C0EB81FC81868D8F5FEB81F1
:103E5000FC81868F81E08A8301C01A828A8129963B
:103E60000FB6F894DEBF0FBECDBFCF91DF9108959E
:103E7000DF93CF93CDB7DEB72E970FB6F894DEBFA2
:103E80000FBECDBF98878F837A8769875C874B8702
:103E90002D871B820FB6F8940F92EF81F885828DE3
:103EA000882309F43FC0EF81F885868197819A8342
:103EB00089838F81988529853A85B9010E941D21C2
:103EC0008D858823B1F4EF81F885828D8150EF8153
:103ED000F885828FEF81F88580858823F1F08F81C6
:103EE000988508960E949D268130B9F40E94911C05
:103EF00014C0EF81F88589819A8197838683EF8149
:103F0000F8858189882349F08F81988541960E94A0
:103F10009D26882311F00E94911C0F900FBE81E016
:103F20008E875CC08B859C85009721F40F900FBE17
:103F30001E8654C08B81882331F4CE0104960E94E2
:103F4000052781E08B830F900FBE0E9461240FB67E
:103F5000F8940F92EF81F885858D8F3F19F4EF81EA
:103F6000F885158EEF81F885868D8F3F19F4EF81E6
:103F7000F885168E0F900FBECE0104969E01255F28
:103F80003F4FB9010E941E27882309F58F8198852C
:103F90000E94B9218823A1F08F81988541962B85B5
:103FA0003C85B9010E9467268F8198850E94652112
:103FB0000E946D24882309F06DCF0E94911C6ACF66
:103FC0008F8198850E9465210E946D2463CF8F8127
:103FD00098850E9465210E946D241E868E852E96EE
:103FE0000FB6F894DEBF0FBECDBFCF91DF9108951D
:103FF000DF93CF93CDB7DEB728970FB6F894DEBF27
:104000000FBECDBF9C838B837E836D8358874F8388
:104010001982EB81FC81828D882371F18B819C81D7
:104020002D813E81B9010E941D21EB81FC81828D91
:104030008150EB81FC81828FEB81FC81858D8F3FEC
:1040400089F4EB81FC818085882399F08B819C81A8
:1040500008960E949D26882361F0EF81F88581E013
:10406000808307C0EB81FC81858D8F5FEB81FC81B4
:10407000858F81E08A8301C01A828A8128960FB6D3
:10408000F894DEBF0FBECDBFCF91DF910895DF93CF
:10409000CF9300D00F92CDB7DEB79B838A830FB644
:1040A000F8940F92EA81FB81828D89830F900FBE75
:1040B00089810F900F900F90CF91DF910895DF933A
:1040C000CF9300D00F92CDB7DEB79B838A83EA816E
:1040D000FB81828D898389810F900F900F90CF9102
:1040E000DF910895DF93CF9300D0CDB7DEB79A83E9
:1040F0008983E981FA81808191810E94DF1489811D
:104100009A810E94DF140F900F90CF91DF91089554
:10411000DF93CF9300D000D00F92CDB7DEB79A8354
:1041200089837C836B834D83E981FA81848D882325
:1041300009F474C08D81882399F5E981FA8164813D
:104140007581E981FA81848D482F50E02B813C8173
:10415000CB01B9010E944729E981FA812481358187
:10416000E981FA81848D882F90E0820F931FE98185
:10417000FA8195838483E981FA8124813581E981FB
:10418000FA81828193812817390708F447C0E981B1
:10419000FA8180819181E981FA81958384833EC08F
:1041A000E981FA8166817781E981FA81848D482FDE
:1041B00050E02B813C81CB01B9010E944729E98164
:1041C000FA8126813781E981FA81848D882F90E0F8
:1041D000909581959F4F820F931FE981FA81978374
:1041E0008683E981FA8126813781E981FA8180819C
:1041F00091812817390790F4E981FA81228133816E
:10420000E981FA81848D882F90E0909581959F4F68
:10421000820F931FE981FA8197838683E981FA816E
:10422000828D8F5FE981FA81828F0F900F900F90BE
:104230000F900F90CF91DF910895DF93CF9300D02F
:1042400000D0CDB7DEB79A8389837C836B83E98105
:10425000FA8180819181009789F1E981FA81268133
:104260003781E981FA81848D882F90E0820F931F36
:10427000E981FA8197838683E981FA8126813781F2
:10428000E981FA81828193812817390740F0E98119
:10429000FA8180819181E981FA8197838683E9811E
:1042A000FA8146815781E981FA81848D282F30E097
:1042B0008B819C81BA01A9010E9447290F900F9020
:1042C0000F900F90CF91DF910895DF93CF9300D09F
:1042D000CDB7DEB79A8389830FB6F8940F9215C0D5
:1042E000E981FA8181898823A9F089819A8141969F
:1042F0000E949D26882311F00E947B27E981FA8184
:10430000868D8150E981FA81868FE981FA81868DD7
:10431000181634F3E981FA818FEF868F0F900FBE64
:104320000FB6F8940F9215C0E981FA818085882331
:10433000A9F089819A8108960E949D26882311F010
:104340000E947B27E981FA81858D8150E981FA817C
:10435000858FE981FA81858D181634F3E981FA8118
:104360008FEF858F0F900FBE0F900F90CF91DF9141
:104370000895DF93CF9300D00F92CDB7DEB79B8324
:104380008A830FB6F8940F92EA81FB81828D19829D
:10439000882311F481E089830F900FBE89810F90EB
:1043A0000F900F90CF91DF910895DF93CF9300D0BE
:1043B0000F92CDB7DEB79B838A83EA81FB81828D22
:1043C0001982882311F481E0898389810F900F90ED
:1043D0000F90CF91DF910895DF93CF9300D00F928C
:1043E000CDB7DEB79B838A830FB6F8940F92EA812C
:1043F000FB81928DEA81FB81838D1982981711F4DC
:1044000081E089830F900FBE89810F900F900F90EC
:10441000CF91DF910895DF93CF9300D00F92CDB766
:10442000DEB79B838A83EA81FB81928DEA81FB81DF
:10443000838D1982981711F481E0898389810F9007
:104440000F900F90CF91DF910895AF92BF92CF92CE
:10445000DF92EF92FF920F931F93DF93CF93CDB72D
:10446000DEB764970FB6F894DEBF0FBECDBF9F8353
:104470008E83798768875B874A873D872C870E877D
:10448000F88AEF86DA8AC98ABC8AAB8A8A859B85D4
:1044900029893A89B9010E94AA289C838B838B8140
:1044A0009C81009709F499C0EB81FC812789308DAC
:1044B0008A859B850197820F931F9A8389838B81BD
:1044C0009C8128853985EB89FC89AA85BB85B90142
:1044D0004E859F018D010E948F2789819A812E81AF
:1044E0003F814C855D85B9010E94D21AEB81FC8128
:1044F000918380838F859889009731F0EF85F889C3
:104500008B819C81918380830FB6F8940F92809168
:1045100029068F5F809329068091260690912706B1
:10452000009769F48B819C819093270680932606DF
:10453000809129068130A9F40E94E62712C080915B
:104540002E06882371F4E0912606F09127069689BD
:104550008E85891730F08B819C81909327068093FC
:104560002606EB81FC81968980912C06891728F418
:10457000EB81FC81868980932C06809133068F5FC6
:1045800080933306EB81FC81968980912D068917F3
:1045900028F4EB81FC81868980932D06EB81FC81D8
:1045A0008689282F30E0C901880F991F880F991F2D
:1045B000880F991F820F931FAC014C5C594F8B8160
:1045C0009C819C012E5F3F4FCA01B9010E943F159B
:1045D00081E08D830F900FBE02C08FEF8D838D81A0
:1045E000813071F480912E06882351F0E0912606E7
:1045F000F091270696898E85981710F40E94911CD9
:104600008D8164960FB6F894DEBF0FBECDBFCF91FB
:10461000DF911F910F91FF90EF90DF90CF90BF90AF
:10462000AF900895DF93CF9300D000D000D0CDB7E6
:10463000DEB79C838B830FB6F8940F9220912606E9
:10464000309127068B819C818217930711F41C827D
:104650001B828B819C81009739F480912606909172
:1046600027069E838D8304C08B819C819E838D83CE
:104670008D819E819A83898389819A8102960E9485
:10468000F715E981FA8184899589009729F0898154
:104690009A810C960E94F71589819A819C012E5F60
:1046A0003F4F80E896E0B9010E943F1580912806AF
:1046B0008F5F80932806809133068F5F8093330647
:1046C0000F900FBE80912E06882331F08B819C8144
:1046D000009711F40E94911C26960FB6F894DEBF45
:1046E0000FBECDBFCF91DF910895DF93CF93CDB7AC
:1046F000DEB728970FB6F894DEBF0FBECDBF9E83FE
:104700008D8378876F8319820E946124ED81FE81F9
:10471000208131818F819885820F931F9C838B83A9
:10472000ED81FE812081318180912A0690912B06B6
:1047300082179307A8F4ED81FE81208131818B815E
:104740009C818217930700F520912A0630912B0651
:104750008B819C8128173907B8F481E0898314C0C4
:10476000ED81FE81208131818B819C8182179307AD
:1047700048F020912A0630912B068B819C812817C6
:10478000390710F481E08983ED81FE818B819C8162
:10479000918380838981882359F0809126069091A6
:1047A000270602960E94F7158B819C810E94612842
:1047B0000E946D248A838A81882311F40E94911CAF
:1047C00028960FB6F894DEBF0FBECDBFCF91DF9114
:1047D0000895DF93CF9300D000D00F92CDB7DEB70E
:1047E0009D838C8319828C819D810097D1F00E94DA
:1047F000612420912A0630912B068C819D81820FA5
:10480000931F9B838A8380912606909127060296A8
:104810000E94F7158A819B810E9461280E946D2465
:1048200089838981882311F40E94911C0F900F9035
:104830000F900F900F90CF91DF910895AF92BF929C
:10484000CF92DF92EF92FF920F93DF93CF930F926D
:10485000CDB7DEB725E031E085E897E2B90146E95A
:1048600050E020E030E000E0EE24FF24CC24DD2402
:10487000AA24BB240E94252289838981813051F496
:10488000F89481E080932E0610922B0610922A064F
:104890000E94551C0F90CF91DF910F91FF90EF90E8
:1048A000DF90CF90BF90AF900895DF93CF93CDB7B7
:1048B000DEB7F89410922E060E948A1CCF91DF91E9
:1048C0000895DF93CF93CDB7DEB780912F068F5F2A
:1048D00080932F06CF91DF910895DF93CF9300D07F
:1048E00000D0CDB7DEB71A820FB6F8940F92809140
:1048F0002F06815080932F0680912F06882309F080
:104900006CC080912906882309F467C0198241C0D0
:10491000E0917C06F0917D06868197819C838B8354
:104920008B819C810C960E94F7158B819C8102964D
:104930000E94F715EB81FC81968980912D068917DD
:1049400028F4EB81FC81868980932D06EB81FC8124
:104950008689282F30E0C901880F991F880F991F79
:10496000880F991F820F931F8C5C994F2B813C817C
:104970002E5F3F4FB9010E943F15EB81FC81968964
:10498000E0912606F09127068689981710F081E0BD
:10499000898380917706882309F0BACF8091300609
:1049A000882371F007C00E942C2580913006815029
:1049B00080933006809130068823A9F781E08983AF
:1049C0008981813021F080913106813031F481E09C
:1049D0008A83109231060E94911C0F900FBE8A812B
:1049E0000F900F900F900F90CF91DF910895DF936C
:1049F000CF9300D0CDB7DEB70FB6F8940F92809169
:104A00002A0690912B069A8389830F900FBE898185
:104A10009A810F900F90CF91DF910895DF93CF93FC
:104A200000D00F92CDB7DEB7198280912A069091FF
:104A30002B069B838A838A819B810F900F900F9016
:104A4000CF91DF910895DF93CF93CDB7DEB78091FB
:104A50002906CF91DF910895DF93CF9300D000D046
:104A600000D0CDB7DEB780912F06882309F0BBC0F8
:104A700080912A0690912B06019690932B068093A5
:104A80002A0680912A0690912B060097D1F58091F5
:104A90007306909174069C838B8380917506909128
:104AA000760690937406809373068B819C81909315
:104AB000760680937506809132068F5F809332066A
:104AC000E0917306F09174068081882339F48FEFAA
:104AD0009FEF909326018093250113C0E091730608
:104AE000F09174060580F681E02D868197819E8382
:104AF0008D83ED81FE818281938190932601809345
:104B0000250120912A0630912B0680912501909154
:104B100026012817390708F46BC0E0917306F0915D
:104B200074068081882339F48FEF9FEF90932601DC
:104B3000809325015DC0E0917306F09174060580B5
:104B4000F681E02D868197819E838D83ED81FE81A4
:104B5000828193819A83898320912A0630912B0642
:104B600089819A812817390738F489819A8190932D
:104B70002601809325013CC08D819E8102960E9472
:104B8000F715ED81FE8184899589009729F08D8143
:104B90009E810C960E94F715ED81FE819689809189
:104BA0002D06891728F4ED81FE81868980932D06D4
:104BB000ED81FE818689282F30E0C901880F991F79
:104BC000880F991F880F991F820F931FAC014C5CAF
:104BD000594F8D819E819C012E5F3F4FCA01B901C3
:104BE0000E943F159ACF809130068F5F80933006E8
:104BF00026960FB6F894DEBF0FBECDBFCF91DF91E2
:104C00000895DF93CF9300D0CDB7DEB780912F0604
:104C1000882349F081E08093310654C080912D06AD
:104C2000815080932D0680912D06282F30E0C901F8
:104C3000880F991F880F991F880F991F820F931F44
:104C4000FC01EC5CF94F8081882341F380912D06B3
:104C5000282F30E0C901880F991F880F991F880FEE
:104C6000991F820F931F8C5C994F9A838983E981E6
:104C7000FA810180F281E02D82819381E981FA81BC
:104C800092838183E981FA812181328189819A81AC
:104C900003962817390759F4E981FA810180F281D6
:104CA000E02D82819381E981FA8192838183E98178
:104CB000FA810180F281E02D868197819093270609
:104CC000809326060F900F90CF91DF910895DF9388
:104CD000CF9300D000D000D0CDB7DEB79C838B83BC
:104CE0007E836D834B815C8180912606909127069F
:104CF0009C01245F3F4FCA01B9010E948B1580912E
:104D000026069091270602960E94F71520912A0602
:104D100030912B068D819E81820F931F9A83898308
:104D200089819A810E94612826960FB6F894DEBF89
:104D30000FBECDBFCF91DF910895DF93CF9300D009
:104D400000D00F92CDB7DEB79D838C83EC81FD81BF
:104D50000580F681E02D868197819B838A838A81F5
:104D60009B810C960E94F71580912F06882361F590
:104D70008A819B8102960E94F715EA81FB819689C0
:104D800080912D06891728F4EA81FB81868980931A
:104D90002D06EA81FB818689282F30E0C901880F22
:104DA000991F880F991F880F991F820F931FAC01BD
:104DB0004C5C594F8A819B819C012E5F3F4FCA01F9
:104DC000B9010E943F150AC08A819B819C01245F22
:104DD0003F4F87E796E0B9010E943F15EA81FB81CA
:104DE0009689E0912606F09127068689981718F093
:104DF00081E0898301C0198289810F900F900F9003
:104E00000F900F90CF91DF910895DF93CF9300D053
:104E1000CDB7DEB79A83898380913206E981FA8122
:104E2000808380912A0690912B06E981FA819283F2
:104E300081830F900F90CF91DF910895DF93CF93EF
:104E400000D000D00F92CDB7DEB79B838A837D83DD
:104E50006C830FB6F8940F92EA81FB819081809168
:104E60003206981771F0EA81FB81218132818091AD
:104E70002A0690912B068217930718F081E0898308
:104E80002FC020912A0630912B06EA81FB81818177
:104E90009281281B390BEC81FD818081918128173B
:104EA0003907E0F4EC81FD8140815181EA81FB8189
:104EB0002181328180912A0690912B06B901681BCD
:104EC000790BCB01840F951FEC81FD819183808349
:104ED0008A819B810E940527198202C081E0898313
:104EE0000F900FBE89810F900F900F900F900F9031
:104EF000CF91DF910895DF93CF93CDB7DEB781E0F7
:104F000080933106CF91DF910895DF93CF9300D046
:104F1000CDB7DEB79A8389830E942328FDCF0F93F4
:104F20001F93DF93CF93CDB7DEB729970FB6F894D1
:104F3000DEBF0FBECDBF9A8389837C836B834D8395
:104F40003F832E831987088789819A8149962B810F
:104F50003C81B90148E050E00E945729E981FA817B
:104F600010A28D81853010F084E08D83E981FA8173
:104F70008D81868B89819A8102960E942F15898165
:104F80009A810C960E942F15E981FA8189819A8174
:104F9000918780878D81282F30E085E090E0821B0B
:104FA000930BE981FA8195878487E981FA81898168
:104FB0009A81938B828B29960FB6F894DEBF0FBE31
:104FC000CDBFCF91DF911F910F910895DF93CF93C4
:104FD0000F92CDB7DEB7198213C08981282F30E038
:104FE000C901880F991F880F991F880F991F820F79
:104FF000931F8C5C994F0E94051589818F5F89836F
:105000008981853050F381E696E00E9405158AE695
:1050100096E00E94051587E796E00E94051580E856
:1050200096E00E94051581E696E0909374068093C1
:1050300073068AE696E090937606809375060F9045
:10504000CF91DF910895DF93CF9300D00F92CDB72A
:10505000DEB780912806882371F10E946124809137
:1050600080061B82882311F481E08B830E946D24CB
:105070008B81882301F50FB6F8940F92E091850695
:10508000F0918606868197819A83898389819A81A6
:1050900002960E94F7158091290681508093290677
:1050A000809128068150809328060F900FBE898139
:1050B0009A810E94FA280F900F900F90CF91DF9164
:1050C0000895DF93CF9300D0CDB7DEB79A8389835D
:1050D000E0912606F091270689819A819383828345
:1050E00020912A0630912B0689819A818217930795
:1050F00070F4809175069091760620912606309185
:1051000027062E5F3F4FB9010E948B151EC04091AC
:1051100073065091740680912606909127069C0193
:105120002E5F3F4FCA01B9010E948B1520912501C6
:105130003091260189819A818217930730F4898101
:105140009A8190932601809325010F900F90CF9123
:10515000DF910895DF93CF93CDB7DEB728970FB6D1
:10516000F894DEBF0FBECDBF9C838B837E836D839F
:1051700081E290E00E9499149A83898389819A81BF
:10518000009769F18D819E81009739F48B819C8114
:105190000E94991498878F8304C08D819E8198877F
:1051A0008F83E981FA818F819885908F878BE98140
:1051B000FA818789908D009739F489819A810E94BC
:1051C000DF141A8219820BC0E981FA818789908DD8
:1051D0002B813C8165EA70E0A9010E9450298981F8
:1051E0009A8128960FB6F894DEBF0FBECDBFCF913F
:1051F000DF910895DF93CF9300D0CDB7DEB79A83C8
:105200008983E981FA818789908D0E94DF148981E1
:105210009A810E94DF140F900F90CF91DF91089533
:105220002F923F924F925F926F927F928F929F92B6
:10523000AF92BF92CF92DF92EF92FF920F931F93A4
:10524000CF93DF93CDB7DEB7CA1BDB0B0FB6F89455
:10525000DEBF0FBECDBF09942A88398848885F8495
:105260006E847D848C849B84AA84B984C884DF8006
:10527000EE80FD800C811B81AA81B981CE0FD11DEA
:105280000FB6F894DEBF0FBECDBFED010895FB0150
:10529000DC0102C001900D9241505040D8F70895B2
:1052A000DC0101C06D9341505040E0F70895FB01CF
:1052B000DC014150504048F001900D920020C9F7A8
:1052C00001C01D9241505040E0F70895F894FFCF7F
:1052D0004C6564206F6E653A6F6E004C65642054B7
:1052E000776F203A6F6E004C656420546872656574
:1052F000203A206F6E0052656C6179204F6E6520F8
:105300003A206F6E0052656C61792054776F3A6F66
:105310006E004D6F746F72203A206F6E004C6564A2
:10532000204F6E65203A206F6666004C65642054FD
:10533000776F203A206F6666004C6564205468726F
:105340006565203A206F66660052656C6179204F72
:105350006E65203A206F66660052656C6179205454
:10536000776F203A206F6666004D6F746F72203A37
:10537000206F66660049444C4500000000000000B4
:105380000000C80402000403000404000405000433
:085390000600040700FFFF0006
:00000001FF
